{
  "contractName": "Marketplace",
  "abi": [
    {
      "inputs": [],
      "stateMutability": "nonpayable",
      "type": "constructor"
    },
    {
      "anonymous": false,
      "inputs": [
        {
          "indexed": false,
          "internalType": "address",
          "name": "nftContract",
          "type": "address"
        },
        {
          "indexed": false,
          "internalType": "uint256",
          "name": "tokenId",
          "type": "uint256"
        },
        {
          "indexed": false,
          "internalType": "address",
          "name": "seller",
          "type": "address"
        },
        {
          "indexed": false,
          "internalType": "address",
          "name": "owner",
          "type": "address"
        },
        {
          "indexed": false,
          "internalType": "uint256",
          "name": "price",
          "type": "uint256"
        }
      ],
      "name": "NFTListed",
      "type": "event"
    },
    {
      "anonymous": false,
      "inputs": [
        {
          "indexed": false,
          "internalType": "address",
          "name": "nftContract",
          "type": "address"
        },
        {
          "indexed": false,
          "internalType": "uint256",
          "name": "tokenId",
          "type": "uint256"
        },
        {
          "indexed": false,
          "internalType": "address",
          "name": "seller",
          "type": "address"
        },
        {
          "indexed": false,
          "internalType": "address",
          "name": "owner",
          "type": "address"
        },
        {
          "indexed": false,
          "internalType": "uint256",
          "name": "price",
          "type": "uint256"
        }
      ],
      "name": "NFTSold",
      "type": "event"
    },
    {
      "inputs": [],
      "name": "LISTING_FEE",
      "outputs": [
        {
          "internalType": "uint256",
          "name": "",
          "type": "uint256"
        }
      ],
      "stateMutability": "view",
      "type": "function"
    },
    {
      "inputs": [
        {
          "internalType": "address",
          "name": "_nftContract",
          "type": "address"
        },
        {
          "internalType": "uint256",
          "name": "_tokenId",
          "type": "uint256"
        },
        {
          "internalType": "uint256",
          "name": "_price",
          "type": "uint256"
        }
      ],
      "name": "listNft",
      "outputs": [],
      "stateMutability": "payable",
      "type": "function"
    },
    {
      "inputs": [
        {
          "internalType": "address",
          "name": "_nftContract",
          "type": "address"
        },
        {
          "internalType": "uint256",
          "name": "_tokenId",
          "type": "uint256"
        }
      ],
      "name": "buyNft",
      "outputs": [],
      "stateMutability": "payable",
      "type": "function"
    },
    {
      "inputs": [
        {
          "internalType": "address",
          "name": "_nftContract",
          "type": "address"
        },
        {
          "internalType": "uint256",
          "name": "_tokenId",
          "type": "uint256"
        },
        {
          "internalType": "uint256",
          "name": "_price",
          "type": "uint256"
        }
      ],
      "name": "resellNft",
      "outputs": [],
      "stateMutability": "payable",
      "type": "function"
    },
    {
      "inputs": [],
      "name": "getListedNfts",
      "outputs": [
        {
          "components": [
            {
              "internalType": "address",
              "name": "nftContract",
              "type": "address"
            },
            {
              "internalType": "uint256",
              "name": "tokenId",
              "type": "uint256"
            },
            {
              "internalType": "address payable",
              "name": "seller",
              "type": "address"
            },
            {
              "internalType": "address payable",
              "name": "owner",
              "type": "address"
            },
            {
              "internalType": "uint256",
              "name": "price",
              "type": "uint256"
            },
            {
              "internalType": "bool",
              "name": "listed",
              "type": "bool"
            }
          ],
          "internalType": "struct Marketplace.NFT[]",
          "name": "",
          "type": "tuple[]"
        }
      ],
      "stateMutability": "view",
      "type": "function"
    },
    {
      "inputs": [],
      "name": "getMyNfts",
      "outputs": [
        {
          "components": [
            {
              "internalType": "address",
              "name": "nftContract",
              "type": "address"
            },
            {
              "internalType": "uint256",
              "name": "tokenId",
              "type": "uint256"
            },
            {
              "internalType": "address payable",
              "name": "seller",
              "type": "address"
            },
            {
              "internalType": "address payable",
              "name": "owner",
              "type": "address"
            },
            {
              "internalType": "uint256",
              "name": "price",
              "type": "uint256"
            },
            {
              "internalType": "bool",
              "name": "listed",
              "type": "bool"
            }
          ],
          "internalType": "struct Marketplace.NFT[]",
          "name": "",
          "type": "tuple[]"
        }
      ],
      "stateMutability": "view",
      "type": "function"
    },
    {
      "inputs": [],
      "name": "getMyListedNfts",
      "outputs": [
        {
          "components": [
            {
              "internalType": "address",
              "name": "nftContract",
              "type": "address"
            },
            {
              "internalType": "uint256",
              "name": "tokenId",
              "type": "uint256"
            },
            {
              "internalType": "address payable",
              "name": "seller",
              "type": "address"
            },
            {
              "internalType": "address payable",
              "name": "owner",
              "type": "address"
            },
            {
              "internalType": "uint256",
              "name": "price",
              "type": "uint256"
            },
            {
              "internalType": "bool",
              "name": "listed",
              "type": "bool"
            }
          ],
          "internalType": "struct Marketplace.NFT[]",
          "name": "",
          "type": "tuple[]"
        }
      ],
      "stateMutability": "view",
      "type": "function"
    }
  ],
  "bytecode": "0x6080604052655af3107a400060035534801561001a57600080fd5b506001600055600480546001600160a01b03191633179055610fbb806100416000396000f3fe6080604052600436106100705760003560e01c806334f5b6241161004e57806334f5b624146100d95780634ddf4f8f146100ee5780638d6cb3fb14610101578063c922b17c1461011657600080fd5b8063047b07bf146100755780631f4cc4db146100a05780632b86ae38146100b5575b600080fd5b34801561008157600080fd5b5061008a610129565b6040516100979190610df8565b60405180910390f35b3480156100ac57600080fd5b5061008a610317565b3480156100c157600080fd5b506100cb60035481565b604051908152602001610097565b6100ec6100e7366004610e9e565b610559565b005b6100ec6100fc366004610ed1565b610737565b34801561010d57600080fd5b5061008a610925565b6100ec610124366004610e9e565b610aba565b6060600061013660025490565b90506000805b82811015610196573360056000610154846001610f11565b81526020810191909152604001600020600301546001600160a01b031603610184578161018081610f29565b9250505b8061018e81610f29565b91505061013c565b5060008167ffffffffffffffff8111156101b2576101b2610f42565b60405190808252806020026020018201604052801561021257816020015b6040805160c08101825260008082526020808301829052928201819052606082018190526080820181905260a082015282526000199092019101816101d05790505b5090506000805b8481101561030d573360056000610231846001610f11565b81526020810191909152604001600020600301546001600160a01b0316036102fb5760056000610262836001610f11565b81526020808201929092526040908101600020815160c08101835281546001600160a01b0390811682526001830154948201949094526002820154841692810192909252600381015490921660608201526004820154608082015260059091015460ff16151560a082015283518490849081106102e1576102e1610f58565b602002602001018190525081806102f790610f29565b9250505b8061030581610f29565b915050610219565b5090949350505050565b6060600061032460025490565b90506000805b828110156103b3573360056000610342846001610f11565b81526020810191909152604001600020600201546001600160a01b031614801561038e575060056000610376836001610f11565b815260208101919091526040016000206005015460ff165b156103a1578161039d81610f29565b9250505b806103ab81610f29565b91505061032a565b5060008167ffffffffffffffff8111156103cf576103cf610f42565b60405190808252806020026020018201604052801561042f57816020015b6040805160c08101825260008082526020808301829052928201819052606082018190526080820181905260a082015282526000199092019101816103ed5790505b5090506000805b8481101561030d57336005600061044e846001610f11565b81526020810191909152604001600020600201546001600160a01b031614801561049a575060056000610482836001610f11565b815260208101919091526040016000206005015460ff165b1561054757600560006104ae836001610f11565b81526020808201929092526040908101600020815160c08101835281546001600160a01b0390811682526001830154948201949094526002820154841692810192909252600381015490921660608201526004820154608082015260059091015460ff16151560a0820152835184908490811061052d5761052d610f58565b6020026020010181905250818061054390610f29565b9250505b8061055181610f29565b915050610436565b610561610d48565b600081116105b65760405162461bcd60e51b815260206004820152601c60248201527f5072696365206d757374206265206174206c656173742031207765690000000060448201526064015b60405180910390fd5b60035434146106075760405162461bcd60e51b815260206004820181905260248201527f4e6f7420656e6f75676820657468657220666f72206c697374696e672066656560448201526064016105ad565b6040516323b872dd60e01b8152336004820152306024820152604481018390526001600160a01b038416906323b872dd90606401600060405180830381600087803b15801561065557600080fd5b505af1158015610669573d6000803e3d6000fd5b505050600083815260056020819052604090912060028101805473ffffffffffffffffffffffffffffffffffffffff19908116331790915560038201805490911630179055908101805460ff19166001908117909155600482018490559091506106d290610da1565b604080516001600160a01b03861681526020810185905233818301523060608201526080810184905290517fa0c6c0d02d86fdacecbaa5fdf5894bab204e31a778250474108540733a9b8d199181900360a00190a1506107326001600055565b505050565b61073f610d48565b600081815260056020526040902060048101543410156107c75760405162461bcd60e51b815260206004820152602660248201527f4e6f7420656e6f75676820657468657220746f20636f7665722061736b696e6760448201527f207072696365000000000000000000000000000000000000000000000000000060648201526084016105ad565b600281015460405133916001600160a01b0316903480156108fc02916000818181858888f19350505050158015610802573d6000803e3d6000fd5b5060018201546040516323b872dd60e01b81523060048201526001600160a01b0383811660248301526044820192909252908516906323b872dd90606401600060405180830381600087803b15801561085a57600080fd5b505af115801561086e573d6000803e3d6000fd5b5050505060038201805473ffffffffffffffffffffffffffffffffffffffff19166001600160a01b03831617905560058201805460ff19169055600180548101905560018201546002830154604080516001600160a01b03808916825260208201949094529183169082015290821660608201523460808201527f16f1dbd97e6bf646d429ed186cce832f1f7fd9907814293b83181e9970ab7bd29060a00160405180910390a150506109216001600055565b5050565b6060600061093260025490565b9050600061093f60015490565b6109499083610f6e565b905060008167ffffffffffffffff81111561096657610966610f42565b6040519080825280602002602001820160405280156109c657816020015b6040805160c08101825260008082526020808301829052928201819052606082018190526080820181905260a082015282526000199092019101816109845790505b5090506000805b8481101561030d57600560006109e4836001610f11565b815260208101919091526040016000206005015460ff1615610aa85760056000610a0f836001610f11565b81526020808201929092526040908101600020815160c08101835281546001600160a01b0390811682526001830154948201949094526002820154841692810192909252600381015490921660608201526004820154608082015260059091015460ff16151560a08201528351849084908110610a8e57610a8e610f58565b60200260200101819052508180610aa490610f29565b9250505b80610ab281610f29565b9150506109cd565b610ac2610d48565b60008111610b125760405162461bcd60e51b815260206004820152601c60248201527f5072696365206d757374206265206174206c656173742031207765690000000060448201526064016105ad565b6003543414610b635760405162461bcd60e51b815260206004820181905260248201527f4e6f7420656e6f75676820657468657220666f72206c697374696e672066656560448201526064016105ad565b6040516323b872dd60e01b8152336004820152306024820152604481018390526001600160a01b038416906323b872dd90606401600060405180830381600087803b158015610bb157600080fd5b505af1158015610bc5573d6000803e3d6000fd5b50506004546003546040516001600160a01b03909216935080156108fc029250906000818181858888f19350505050158015610c05573d6000803e3d6000fd5b50610c14600280546001019055565b6040805160c0810182526001600160a01b0380861682526020808301868152338486018181523060608701818152608088018a8152600160a08a0181815260008e81526005998a90528c90209a518b54908b1673ffffffffffffffffffffffffffffffffffffffff19918216178c559751918b0191909155935160028a018054918a1691881691909117905590516003890180549190981695169490941790955591516004860155905193909101805493151560ff199094169390931790925591517fa0c6c0d02d86fdacecbaa5fdf5894bab204e31a778250474108540733a9b8d1992610d3692879287929087906001600160a01b039586168152602081019490945291841660408401529092166060820152608081019190915260a00190565b60405180910390a16107326001600055565b600260005403610d9a5760405162461bcd60e51b815260206004820152601f60248201527f5265656e7472616e637947756172643a207265656e7472616e742063616c6c0060448201526064016105ad565b6002600055565b805480610df05760405162461bcd60e51b815260206004820152601b60248201527f436f756e7465723a2064656372656d656e74206f766572666c6f77000000000060448201526064016105ad565b600019019055565b602080825282518282018190526000919060409081850190868401855b82811015610e7557815180516001600160a01b039081168652878201518887015286820151811687870152606080830151909116908601526080808201519086015260a09081015115159085015260c09093019290850190600101610e15565b5091979650505050505050565b80356001600160a01b0381168114610e9957600080fd5b919050565b600080600060608486031215610eb357600080fd5b610ebc84610e82565b95602085013595506040909401359392505050565b60008060408385031215610ee457600080fd5b610eed83610e82565b946020939093013593505050565b634e487b7160e01b600052601160045260246000fd5b60008219821115610f2457610f24610efb565b500190565b600060018201610f3b57610f3b610efb565b5060010190565b634e487b7160e01b600052604160045260246000fd5b634e487b7160e01b600052603260045260246000fd5b600082821015610f8057610f80610efb565b50039056fea2646970667358221220ccd27e84c46efa99611dfc4fc6b1693dfef8e2ce8cbbf8aec6f96e14008b7a1b64736f6c634300080d0033",
  "immutableReferences": {},
  "source": "// SPDX-License-Identifier: MIT\npragma solidity ^0.8.13;\n\nimport \"@openzeppelin/contracts/utils/Counters.sol\";\nimport \"@openzeppelin/contracts/token/ERC721/ERC721.sol\";\nimport \"@openzeppelin/contracts/security/ReentrancyGuard.sol\";\n\n// To block the Reentrancy Attack\ncontract Marketplace is ReentrancyGuard {\n  using Counters for Counters.Counter;\n  Counters.Counter private _nftsSold;\n  Counters.Counter private _nftCount;\n  uint256 public LISTING_FEE = 0.0001 ether;\n  address payable private _marketOwner;\n  mapping(uint256 => NFT) private _idToNFT;\n  struct NFT {\n    address nftContract;\n    uint256 tokenId;\n    address payable seller;\n    address payable owner;\n    uint256 price;\n    bool listed;\n  }\n  event NFTListed(\n    address nftContract,\n    uint256 tokenId,\n    address seller,\n    address owner,\n    uint256 price\n  );\n  event NFTSold(\n    address nftContract,\n    uint256 tokenId,\n    address seller,\n    address owner,\n    uint256 price\n  );\n\n  constructor() {\n    _marketOwner = payable(msg.sender);\n  }\n\n  // List the NFT on the marketplace\n  function listNft(address _nftContract, uint256 _tokenId, uint256 _price) public payable nonReentrant {\n    require(_price > 0, \"Price must be at least 1 wei\");\n    require(msg.value == LISTING_FEE, \"Not enough ether for listing fee\");\n\n    IERC721(_nftContract).transferFrom(msg.sender, address(this), _tokenId);\n    _marketOwner.transfer(LISTING_FEE);\n    _nftCount.increment();\n\n    _idToNFT[_tokenId] = NFT(\n      _nftContract,\n      _tokenId, \n      payable(msg.sender),\n      payable(address(this)),\n      _price,\n      true\n    );\n\n    emit NFTListed(_nftContract, _tokenId, msg.sender, address(this), _price);\n  }\n\n  // Buy an NFT\n  function buyNft(address _nftContract, uint256 _tokenId) public payable nonReentrant {\n    NFT storage nft = _idToNFT[_tokenId];\n    require(msg.value >= nft.price, \"Not enough ether to cover asking price\");\n\n    address payable buyer = payable(msg.sender);\n    payable(nft.seller).transfer(msg.value);\n    IERC721(_nftContract).transferFrom(address(this), buyer, nft.tokenId);\n    nft.owner = buyer;\n    nft.listed = false;\n\n    _nftsSold.increment();\n    emit NFTSold(_nftContract, nft.tokenId, nft.seller, buyer, msg.value);\n  }\n\n  // Resell an NFT purchased from the marketplace\n  function resellNft(address _nftContract, uint256 _tokenId, uint256 _price) public payable nonReentrant {\n    require(_price > 0, \"Price must be at least 1 wei\");\n    require(msg.value == LISTING_FEE, \"Not enough ether for listing fee\");\n\n    IERC721(_nftContract).transferFrom(msg.sender, address(this), _tokenId);\n\n    NFT storage nft = _idToNFT[_tokenId];\n    nft.seller = payable(msg.sender);\n    nft.owner = payable(address(this));\n    nft.listed = true;\n    nft.price = _price;\n\n    _nftsSold.decrement();\n    emit NFTListed(_nftContract, _tokenId, msg.sender, address(this), _price);\n  }\n\n  function getListedNfts() public view returns (NFT[] memory) {\n    uint256 nftCount = _nftCount.current();\n    uint256 unsoldNftsCount = nftCount - _nftsSold.current();\n\n    NFT[] memory nfts = new NFT[](unsoldNftsCount);\n    uint nftsIndex = 0;\n    for (uint i = 0; i < nftCount; i++) {\n      if (_idToNFT[i + 1].listed) {\n        nfts[nftsIndex] = _idToNFT[i + 1];\n        nftsIndex++;\n      }\n    }\n    return nfts;\n  }\n\n  function getMyNfts() public view returns (NFT[] memory) {\n    uint nftCount = _nftCount.current();\n    uint myNftCount = 0;\n    for (uint i = 0; i < nftCount; i++) {\n      if (_idToNFT[i + 1].owner == msg.sender) {\n        myNftCount++;\n      }\n    }\n\n    NFT[] memory nfts = new NFT[](myNftCount);\n    uint nftsIndex = 0;\n    for (uint i = 0; i < nftCount; i++) {\n      if (_idToNFT[i + 1].owner == msg.sender) {\n        nfts[nftsIndex] = _idToNFT[i + 1];\n        nftsIndex++;\n      }\n    }\n    return nfts;\n  }\n\n  function getMyListedNfts() public view returns (NFT[] memory) {\n    uint nftCount = _nftCount.current();\n    uint myListedNftCount = 0;\n    for (uint i = 0; i < nftCount; i++) {\n      if (_idToNFT[i + 1].seller == msg.sender && _idToNFT[i + 1].listed) {\n        myListedNftCount++;\n      }\n    }\n\n    NFT[] memory nfts = new NFT[](myListedNftCount);\n    uint nftsIndex = 0;\n    for (uint i = 0; i < nftCount; i++) {\n      if (_idToNFT[i + 1].seller == msg.sender && _idToNFT[i + 1].listed) {\n        nfts[nftsIndex] = _idToNFT[i + 1];\n        nftsIndex++;\n      }\n    }\n    return nfts;\n  }\n}\n",
  "sourcePath": "/Users/brownlee/Desktop/Projects/nft-marketplace/contracts/optimism/Marketplace.sol",
  "compiler": {
    "name": "solc",
    "version": "0.8.13+commit.abaa5c0e.Emscripten.clang"
  },
  "schemaVersion": "3.4.13",
  "updatedAt": "2023-04-10T11:52:18.367Z",
  "devdoc": {
    "kind": "dev",
    "methods": {},
    "version": 1
  },
  "userdoc": {
    "kind": "user",
    "methods": {},
    "version": 1
  }
}